{
  "_format": "hh-sol-artifact-1",
  "contractName": "NFTMarketplace",
  "sourceName": "contracts/NFTMarketplace.sol",
  "abi": [
    {
      "inputs": [
        {
          "internalType": "address",
          "name": "_genesisBadge",
          "type": "address"
        },
        {
          "internalType": "address",
          "name": "_sgtToken",
          "type": "address"
        }
      ],
      "stateMutability": "nonpayable",
      "type": "constructor"
    },
    {
      "inputs": [
        {
          "internalType": "address",
          "name": "owner",
          "type": "address"
        }
      ],
      "name": "OwnableInvalidOwner",
      "type": "error"
    },
    {
      "inputs": [
        {
          "internalType": "address",
          "name": "account",
          "type": "address"
        }
      ],
      "name": "OwnableUnauthorizedAccount",
      "type": "error"
    },
    {
      "inputs": [],
      "name": "ReentrancyGuardReentrantCall",
      "type": "error"
    },
    {
      "anonymous": false,
      "inputs": [
        {
          "indexed": true,
          "internalType": "uint256",
          "name": "tokenId",
          "type": "uint256"
        },
        {
          "indexed": true,
          "internalType": "address",
          "name": "seller",
          "type": "address"
        },
        {
          "indexed": false,
          "internalType": "uint256",
          "name": "timestamp",
          "type": "uint256"
        }
      ],
      "name": "Cancelled",
      "type": "event"
    },
    {
      "anonymous": false,
      "inputs": [
        {
          "indexed": false,
          "internalType": "uint256",
          "name": "oldFee",
          "type": "uint256"
        },
        {
          "indexed": false,
          "internalType": "uint256",
          "name": "newFee",
          "type": "uint256"
        }
      ],
      "name": "FeeUpdated",
      "type": "event"
    },
    {
      "anonymous": false,
      "inputs": [
        {
          "indexed": true,
          "internalType": "uint256",
          "name": "tokenId",
          "type": "uint256"
        },
        {
          "indexed": true,
          "internalType": "address",
          "name": "seller",
          "type": "address"
        },
        {
          "indexed": false,
          "internalType": "uint256",
          "name": "price",
          "type": "uint256"
        },
        {
          "indexed": false,
          "internalType": "uint256",
          "name": "timestamp",
          "type": "uint256"
        }
      ],
      "name": "Listed",
      "type": "event"
    },
    {
      "anonymous": false,
      "inputs": [
        {
          "indexed": true,
          "internalType": "address",
          "name": "previousOwner",
          "type": "address"
        },
        {
          "indexed": true,
          "internalType": "address",
          "name": "newOwner",
          "type": "address"
        }
      ],
      "name": "OwnershipTransferred",
      "type": "event"
    },
    {
      "anonymous": false,
      "inputs": [
        {
          "indexed": true,
          "internalType": "uint256",
          "name": "tokenId",
          "type": "uint256"
        },
        {
          "indexed": true,
          "internalType": "address",
          "name": "seller",
          "type": "address"
        },
        {
          "indexed": true,
          "internalType": "address",
          "name": "buyer",
          "type": "address"
        },
        {
          "indexed": false,
          "internalType": "uint256",
          "name": "price",
          "type": "uint256"
        },
        {
          "indexed": false,
          "internalType": "uint256",
          "name": "fee",
          "type": "uint256"
        },
        {
          "indexed": false,
          "internalType": "uint256",
          "name": "timestamp",
          "type": "uint256"
        }
      ],
      "name": "Sold",
      "type": "event"
    },
    {
      "inputs": [
        {
          "internalType": "uint256",
          "name": "tokenId",
          "type": "uint256"
        }
      ],
      "name": "buyNFT",
      "outputs": [],
      "stateMutability": "nonpayable",
      "type": "function"
    },
    {
      "inputs": [
        {
          "internalType": "uint256",
          "name": "price",
          "type": "uint256"
        }
      ],
      "name": "calculateFee",
      "outputs": [
        {
          "internalType": "uint256",
          "name": "",
          "type": "uint256"
        }
      ],
      "stateMutability": "view",
      "type": "function"
    },
    {
      "inputs": [
        {
          "internalType": "uint256",
          "name": "tokenId",
          "type": "uint256"
        }
      ],
      "name": "cancelListing",
      "outputs": [],
      "stateMutability": "nonpayable",
      "type": "function"
    },
    {
      "inputs": [],
      "name": "feesCollected",
      "outputs": [
        {
          "internalType": "uint256",
          "name": "",
          "type": "uint256"
        }
      ],
      "stateMutability": "view",
      "type": "function"
    },
    {
      "inputs": [],
      "name": "genesisBadge",
      "outputs": [
        {
          "internalType": "contract IERC721",
          "name": "",
          "type": "address"
        }
      ],
      "stateMutability": "view",
      "type": "function"
    },
    {
      "inputs": [
        {
          "internalType": "uint256",
          "name": "offset",
          "type": "uint256"
        },
        {
          "internalType": "uint256",
          "name": "limit",
          "type": "uint256"
        }
      ],
      "name": "getActiveListings",
      "outputs": [
        {
          "internalType": "uint256[]",
          "name": "tokenIds",
          "type": "uint256[]"
        },
        {
          "internalType": "address[]",
          "name": "sellers",
          "type": "address[]"
        },
        {
          "internalType": "uint256[]",
          "name": "prices",
          "type": "uint256[]"
        }
      ],
      "stateMutability": "view",
      "type": "function"
    },
    {
      "inputs": [
        {
          "internalType": "uint256",
          "name": "tokenId",
          "type": "uint256"
        }
      ],
      "name": "getListing",
      "outputs": [
        {
          "internalType": "address",
          "name": "seller",
          "type": "address"
        },
        {
          "internalType": "uint256",
          "name": "price",
          "type": "uint256"
        },
        {
          "internalType": "bool",
          "name": "active",
          "type": "bool"
        }
      ],
      "stateMutability": "view",
      "type": "function"
    },
    {
      "inputs": [
        {
          "internalType": "address",
          "name": "seller",
          "type": "address"
        }
      ],
      "name": "getSellerListings",
      "outputs": [
        {
          "internalType": "uint256[]",
          "name": "",
          "type": "uint256[]"
        }
      ],
      "stateMutability": "view",
      "type": "function"
    },
    {
      "inputs": [
        {
          "internalType": "uint256",
          "name": "tokenId",
          "type": "uint256"
        },
        {
          "internalType": "uint256",
          "name": "price",
          "type": "uint256"
        }
      ],
      "name": "listNFT",
      "outputs": [],
      "stateMutability": "nonpayable",
      "type": "function"
    },
    {
      "inputs": [
        {
          "internalType": "uint256",
          "name": "",
          "type": "uint256"
        }
      ],
      "name": "listings",
      "outputs": [
        {
          "internalType": "address",
          "name": "seller",
          "type": "address"
        },
        {
          "internalType": "uint256",
          "name": "price",
          "type": "uint256"
        },
        {
          "internalType": "bool",
          "name": "active",
          "type": "bool"
        }
      ],
      "stateMutability": "view",
      "type": "function"
    },
    {
      "inputs": [],
      "name": "marketplaceFee",
      "outputs": [
        {
          "internalType": "uint256",
          "name": "",
          "type": "uint256"
        }
      ],
      "stateMutability": "view",
      "type": "function"
    },
    {
      "inputs": [],
      "name": "owner",
      "outputs": [
        {
          "internalType": "address",
          "name": "",
          "type": "address"
        }
      ],
      "stateMutability": "view",
      "type": "function"
    },
    {
      "inputs": [],
      "name": "renounceOwnership",
      "outputs": [],
      "stateMutability": "nonpayable",
      "type": "function"
    },
    {
      "inputs": [
        {
          "internalType": "uint256",
          "name": "tokenId",
          "type": "uint256"
        }
      ],
      "name": "rescueNFT",
      "outputs": [],
      "stateMutability": "nonpayable",
      "type": "function"
    },
    {
      "inputs": [
        {
          "internalType": "uint256",
          "name": "newFee",
          "type": "uint256"
        }
      ],
      "name": "setMarketplaceFee",
      "outputs": [],
      "stateMutability": "nonpayable",
      "type": "function"
    },
    {
      "inputs": [],
      "name": "sgtToken",
      "outputs": [
        {
          "internalType": "contract IERC20",
          "name": "",
          "type": "address"
        }
      ],
      "stateMutability": "view",
      "type": "function"
    },
    {
      "inputs": [
        {
          "internalType": "address",
          "name": "newOwner",
          "type": "address"
        }
      ],
      "name": "transferOwnership",
      "outputs": [],
      "stateMutability": "nonpayable",
      "type": "function"
    },
    {
      "inputs": [
        {
          "internalType": "uint256",
          "name": "tokenId",
          "type": "uint256"
        },
        {
          "internalType": "uint256",
          "name": "newPrice",
          "type": "uint256"
        }
      ],
      "name": "updatePrice",
      "outputs": [],
      "stateMutability": "nonpayable",
      "type": "function"
    },
    {
      "inputs": [],
      "name": "withdrawFees",
      "outputs": [],
      "stateMutability": "nonpayable",
      "type": "function"
    }
  ],
  "bytecode": "0x60c060405260fa6002553480156200001657600080fd5b5060405162001a3e38038062001a3e8339810160408190526200003991620001a6565b33806200006157604051631e4fbdf760e01b8152600060048201526024015b60405180910390fd5b6200006c8162000139565b50600180556001600160a01b038216620000c95760405162461bcd60e51b815260206004820152601360248201527f496e76616c6964204e4654206164647265737300000000000000000000000000604482015260640162000058565b6001600160a01b038116620001215760405162461bcd60e51b815260206004820152601360248201527f496e76616c696420534754206164647265737300000000000000000000000000604482015260640162000058565b6001600160a01b039182166080521660a052620001de565b600080546001600160a01b038381166001600160a01b0319831681178455604051919092169283917f8be0079c531659141344cd1fd0a4f28419497f9722a3daafe3b4186f6b6457e09190a35050565b80516001600160a01b0381168114620001a157600080fd5b919050565b60008060408385031215620001ba57600080fd5b620001c58362000189565b9150620001d56020840162000189565b90509250929050565b60805160a0516118026200023c600039600081816101ed0152818161054f01528181610759015261084001526000818161012b015281816104310152818161092c01528181610d5f01528181610f03015261101e01526118026000f3fe608060405234801561001057600080fd5b50600436106101215760003560e01c806382367b2d116100ad57806399a5d7471161007157806399a5d747146102db578063c128b231146102ee578063de74e57b14610310578063f071db5a1461034c578063f2fde38b1461035557600080fd5b806382367b2d1461027e5780638da5cb5b146102915780638f78e6a1146102a25780639407ea98146102b557806394383f14146102c857600080fd5b8063476343ee116100f4578063476343ee1461022457806351ed82881461022c5780635f42da091461023f5780636a1669641461025f578063715018a61461027657600080fd5b80630d09e6cd14610126578063107a274a1461016a578063166ff030146101e8578063305a67a81461020f575b600080fd5b61014d7f000000000000000000000000000000000000000000000000000000000000000081565b6040516001600160a01b0390911681526020015b60405180910390f35b6101c1610178366004611563565b600081815260036020908152604091829020825160608101845281546001600160a01b0316808252600183015493820184905260029092015460ff161515930183905293909250565b604080516001600160a01b0390941684526020840192909252151590820152606001610161565b61014d7f000000000000000000000000000000000000000000000000000000000000000081565b61022261021d366004611563565b610368565b005b6102226104ea565b61022261023a366004611563565b610643565b61025261024d366004611591565b6109fe565b60405161016191906115f1565b61026860025481565b604051908152602001610161565b610222610bac565b61022261028c366004611604565b610bbe565b6000546001600160a01b031661014d565b6102226102b0366004611563565b610cf3565b6102226102c3366004611563565b610df3565b6102226102d6366004611604565b610e8b565b6102686102e9366004611563565b61114f565b6103016102fc366004611604565b611172565b60405161016193929190611626565b6101c161031e366004611563565b6003602052600090815260409020805460018201546002909201546001600160a01b03909116919060ff1683565b61026860055481565b610222610363366004611591565b6113b7565b6103706113f2565b6000818152600360205260409020600281015460ff166103c45760405162461bcd60e51b815260206004820152600a602482015269139bdd081b1a5cdd195960b21b60448201526064015b60405180910390fd5b80546001600160a01b0316331461040e5760405162461bcd60e51b815260206004820152600e60248201526d2737ba103a34329039b2b63632b960911b60448201526064016103bb565b60028101805460ff191690556040516323b872dd60e01b81526001600160a01b037f000000000000000000000000000000000000000000000000000000000000000016906323b872dd9061046a90309033908790600401611699565b600060405180830381600087803b15801561048457600080fd5b505af1158015610498573d6000803e3d6000fd5b505050506104a6338361141c565b604051428152339083907faa17fdf5ffb610a4cc0887f35c13c501975a370005080f68441055871952eb819060200160405180910390a3506104e760018055565b50565b6104f26114e6565b6104fa6113f2565b600554806105405760405162461bcd60e51b81526020600482015260136024820152724e6f206665657320746f20776974686472617760681b60448201526064016103bb565b60006005556001600160a01b037f00000000000000000000000000000000000000000000000000000000000000001663a9059cbb6105866000546001600160a01b031690565b6040516001600160e01b031960e084901b1681526001600160a01b039091166004820152602481018490526044016020604051808303816000875af11580156105d3573d6000803e3d6000fd5b505050506040513d601f19601f820116820180604052508101906105f791906116bd565b6106375760405162461bcd60e51b815260206004820152601160248201527015da5d1a191c985dd85b0819985a5b1959607a1b60448201526064016103bb565b5061064160018055565b565b61064b6113f2565b6000818152600360205260409020600281015460ff166106a35760405162461bcd60e51b81526020600482015260136024820152724e6f74206c697374656420666f722073616c6560681b60448201526064016103bb565b80546001600160a01b031633036106fc5760405162461bcd60e51b815260206004820152601760248201527f43616e6e6f742062757920796f7572206f776e204e465400000000000000000060448201526064016103bb565b60018101546002546000906127109061071590846116f5565b61071f919061170c565b9050600061072d828461172e565b60028501805460ff1916905584546040516323b872dd60e01b81529192506001600160a01b03908116917f0000000000000000000000000000000000000000000000000000000000000000909116906323b872dd9061079490339085908790600401611699565b6020604051808303816000875af11580156107b3573d6000803e3d6000fd5b505050506040513d601f19601f820116820180604052508101906107d791906116bd565b6108235760405162461bcd60e51b815260206004820152601860248201527f5061796d656e7420746f2073656c6c6572206661696c6564000000000000000060448201526064016103bb565b8215610915576040516323b872dd60e01b81526001600160a01b037f000000000000000000000000000000000000000000000000000000000000000016906323b872dd9061087990339030908890600401611699565b6020604051808303816000875af1158015610898573d6000803e3d6000fd5b505050506040513d601f19601f820116820180604052508101906108bc91906116bd565b6108fd5760405162461bcd60e51b8152602060048201526012602482015271119959481c185e5b595b9d0819985a5b195960721b60448201526064016103bb565b826005600082825461090f9190611741565b90915550505b6040516323b872dd60e01b81526001600160a01b037f000000000000000000000000000000000000000000000000000000000000000016906323b872dd9061096590309033908b90600401611699565b600060405180830381600087803b15801561097f57600080fd5b505af1158015610993573d6000803e3d6000fd5b505050506109a1818761141c565b60408051858152602081018590524281830152905133916001600160a01b0384169189917f2938a0a3a4a7c19c3a1fe6ef25340b7acd26dfac11de87836084d42fccc18656919081900360600190a450505050506104e760018055565b6001600160a01b0381166000908152600460209081526040808320805482518185028101850190935280835260609493830182828015610a5d57602002820191906000526020600020905b815481526020019060010190808311610a49575b505050505090506000805b8251811015610ac35760036000848381518110610a8757610a87611754565b60209081029190910181015182528101919091526040016000206002015460ff1615610abb5781610ab78161176a565b9250505b600101610a68565b5060008167ffffffffffffffff811115610adf57610adf611783565b604051908082528060200260200182016040528015610b08578160200160208202803683370190505b5090506000805b8451811015610ba15760036000868381518110610b2e57610b2e611754565b60209081029190910181015182528101919091526040016000206002015460ff1615610b9957848181518110610b6657610b66611754565b6020026020010151838381518110610b8057610b80611754565b602090810291909101015281610b958161176a565b9250505b600101610b0f565b509095945050505050565b610bb46114e6565b6106416000611513565b6000828152600360205260409020600281015460ff16610c0d5760405162461bcd60e51b815260206004820152600a602482015269139bdd081b1a5cdd195960b21b60448201526064016103bb565b80546001600160a01b03163314610c575760405162461bcd60e51b815260206004820152600e60248201526d2737ba103a34329039b2b63632b960911b60448201526064016103bb565b60008211610ca75760405162461bcd60e51b815260206004820152601c60248201527f5072696365206d7573742062652067726561746572207468616e20300000000060448201526064016103bb565b6001810180549083905560408051848152426020820152339186917f98868c46d49b200d82c273c9f28d73265826ca6567690262736450563dfff64c910160405180910390a350505050565b610cfb6114e6565b60008181526003602052604090206002015460ff1615610d5d5760405162461bcd60e51b815260206004820152601c60248201527f43616e6e6f742072657363756520616374697665206c697374696e670000000060448201526064016103bb565b7f00000000000000000000000000000000000000000000000000000000000000006001600160a01b03166323b872dd30610d9f6000546001600160a01b031690565b846040518463ffffffff1660e01b8152600401610dbe93929190611699565b600060405180830381600087803b158015610dd857600080fd5b505af1158015610dec573d6000803e3d6000fd5b5050505050565b610dfb6114e6565b6103e8811115610e465760405162461bcd60e51b815260206004820152601660248201527546656520746f6f206869676820286d6178203130252960501b60448201526064016103bb565b600280549082905560408051828152602081018490527f528d9479e9f9889a87a3c30c7f7ba537e5e59c4c85a37733b16e57c62df61302910160405180910390a15050565b610e936113f2565b60008111610ee35760405162461bcd60e51b815260206004820152601c60248201527f5072696365206d7573742062652067726561746572207468616e20300000000060448201526064016103bb565b6040516331a9108f60e11b81526004810183905233906001600160a01b037f00000000000000000000000000000000000000000000000000000000000000001690636352211e90602401602060405180830381865afa158015610f4a573d6000803e3d6000fd5b505050506040513d601f19601f82011682018060405250810190610f6e9190611799565b6001600160a01b031614610fb45760405162461bcd60e51b815260206004820152600d60248201526c2737ba103a34329037bbb732b960991b60448201526064016103bb565b60008281526003602052604090206002015460ff16156110075760405162461bcd60e51b815260206004820152600e60248201526d105b1c9958591e481b1a5cdd195960921b60448201526064016103bb565b6040516323b872dd60e01b81526001600160a01b037f000000000000000000000000000000000000000000000000000000000000000016906323b872dd9061105790339030908790600401611699565b600060405180830381600087803b15801561107157600080fd5b505af1158015611085573d6000803e3d6000fd5b505060408051606081018252338082526020808301878152600184860181815260008b815260038552878120965187546001600160a01b0319166001600160a01b03909116178755925186830155516002909501805460ff191695151595909517909455828152600482528481208054948501815581528190209092018790558251868152429281019290925293508592507f98868c46d49b200d82c273c9f28d73265826ca6567690262736450563dfff64c910160405180910390a361114b60018055565b5050565b60006127106002548361116291906116f5565b61116c919061170c565b92915050565b606080806127106000805b828110801561118b57508682105b156111d65760008181526003602052604090206002015460ff1680156111b15750878210155b156111c457816111c08161176a565b9250505b806111ce8161176a565b91505061117d565b508067ffffffffffffffff8111156111f0576111f0611783565b604051908082528060200260200182016040528015611219578160200160208202803683370190505b5094508067ffffffffffffffff81111561123557611235611783565b60405190808252806020026020018201604052801561125e578160200160208202803683370190505b5093508067ffffffffffffffff81111561127a5761127a611783565b6040519080825280602002602001820160405280156112a3578160200160208202803683370190505b50925060008060005b84811080156112ba57508383105b156113ab5760008181526003602052604090206002015460ff16156113995789821061138b57808884815181106112f3576112f3611754565b60209081029190910181019190915260008281526003909152604090205487516001600160a01b039091169088908590811061133157611331611754565b6001600160a01b03909216602092830291909101820152600082815260039091526040902060010154865187908590811061136e5761136e611754565b6020908102919091010152826113838161176a565b935050611399565b816113958161176a565b9250505b806113a38161176a565b9150506112ac565b50505050509250925092565b6113bf6114e6565b6001600160a01b0381166113e957604051631e4fbdf760e01b8152600060048201526024016103bb565b6104e781611513565b60026001540361141557604051633ee5aeb560e01b815260040160405180910390fd5b6002600155565b6001600160a01b0382166000908152600460205260408120905b81548110156114e0578282828154811061145257611452611754565b9060005260206000200154036114d857815482906114729060019061172e565b8154811061148257611482611754565b906000526020600020015482828154811061149f5761149f611754565b9060005260206000200181905550818054806114bd576114bd6117b6565b600190038181906000526020600020016000905590556114e0565b600101611436565b50505050565b6000546001600160a01b031633146106415760405163118cdaa760e01b81523360048201526024016103bb565b600080546001600160a01b038381166001600160a01b0319831681178455604051919092169283917f8be0079c531659141344cd1fd0a4f28419497f9722a3daafe3b4186f6b6457e09190a35050565b60006020828403121561157557600080fd5b5035919050565b6001600160a01b03811681146104e757600080fd5b6000602082840312156115a357600080fd5b81356115ae8161157c565b9392505050565b60008151808452602080850194506020840160005b838110156115e6578151875295820195908201906001016115ca565b509495945050505050565b6020815260006115ae60208301846115b5565b6000806040838503121561161757600080fd5b50508035926020909101359150565b60608152600061163960608301866115b5565b82810360208481019190915285518083528682019282019060005b818110156116795784516001600160a01b031683529383019391830191600101611654565b5050848103604086015261168d81876115b5565b98975050505050505050565b6001600160a01b039384168152919092166020820152604081019190915260600190565b6000602082840312156116cf57600080fd5b815180151581146115ae57600080fd5b634e487b7160e01b600052601160045260246000fd5b808202811582820484141761116c5761116c6116df565b60008261172957634e487b7160e01b600052601260045260246000fd5b500490565b8181038181111561116c5761116c6116df565b8082018082111561116c5761116c6116df565b634e487b7160e01b600052603260045260246000fd5b60006001820161177c5761177c6116df565b5060010190565b634e487b7160e01b600052604160045260246000fd5b6000602082840312156117ab57600080fd5b81516115ae8161157c565b634e487b7160e01b600052603160045260246000fdfea26469706673582212202f89658c0c012cdde97fabc00de72294724c52d766c7e8275f09da1ffc095a1b64736f6c63430008180033",
  "linkReferences": {},
  "deployedLinkReferences": {}
}